:020000020000FC
:040000000C947200EA
:040064000C94A40054
:1000E4000FEF04B900270093000108E00EBF0FEFE3
:1000F4000DBF19D0789420E0283041F00091000120
:10010400003011F0289A06C0289804C022272093B2
:100114000001F4CF2D9A0E94B30023952D980E94DC
:10012400B3002395E9CF0F9307E60093C40000E0E2
:100134000093C50000E90093C10006E00093C200EB
:100144000F9108950F931F930FB70F930091C6005B
:1001540000FB10F9109300010F910FBF1F910F9135
:1001640018952F933F934F9325E13BE44FEB4A952A
:10017400F1F73A95E1F72A95D1F700004F913F91B5
:040184002F9108951A
:00000001FF
