:020000020000FC
:040000000C947200EA
:040064000C94980060
:1000E4000FEF04B900270093000103E200FB10F9AD
:1000F4001093000108E00EBF0FEF0DBF08D07894F5
:100104002D9A0E94A5002D980E94A500F9CF0F9367
:1001140007E60093C40000E00093C50000E90093E3
:10012400C10006E00093C2000F9108950F930FB72A
:100134000F930091C60000FB00F9009300010F919A
:100144000FBF0F9118952F933F934F9325E13BE4F5
:100154004FEB4A95F1F73A95E1F72A95D1F700006C
:080164004F913F912F91089586
:00000001FF
